:100000000C945E000C947B000C947B000C947B00A1
:100010000C947B000C947B000C947B000C947B0074
:100020000C947B000C945A140C947B000C947B0071
:100030000C947B000C947B000C947B000C947B0054
:100040000C94A7030C947B000C947B000C947B0015
:100050000C947B000C947B000C947B000C947B0034
:100060000C947B000C947B00D103E003EB03F603BC
:1000700003040E04190434044B045604610471048F
:100080007C048704A104B004BB04C604D304DE04CA
:10009000E90404051B052605310541054C055705F6
:1000A0007105A405AF05BA05C805D305DE05CC1456
:1000B000CF14D214D514D814DB14E01411241FBEAD
:1000C000CFEFD8E0DEBFCDBF16E0A0E0B1E0EAEAB6
:1000D000FFE202C005900D92AE33B107D9F727E0D9
:1000E000AEE3B6E001C01D92A830B207E1F70E946E
:1000F000B6140C94D3170C9400008770806480931E
:100100007C00EAE7F0E0808180648083808186FD66
:10011000FDCF80917800909179000895209178002A
:10012000309179008770982F906490937C00EAE773
:10013000F0E0908190649083C901089581E05C9B18
:1001400080E008955C9A08955C9808955A985B9AA7
:1001500008955B985A9A08958BB1837F8BB908955F
:100160008BB18695869583700895449A0895449836
:100170000895109271064598599A00005998000008
:1001800000000000489B05C080917106816080934B
:100190007106459A000000000000489B05C0809150
:1001A000710682608093710645980000459A0000B0
:1001B00000000000489B05C0809171068460809318
:1001C000710645980000459A000000000000489B19
:1001D00005C0809171068860809371064598000083
:1001E000459A000000000000489B05C08091710600
:1001F00080618093710645980000459A00000000D8
:100200000000489B05C08091710680628093710652
:1002100045980000459A000000000000489B05C07A
:100220008091710680648093710645980000459A1C
:10023000000000000000489B05C0809171068068A6
:1002400080937106459800000895549A5C988AB18D
:100250008C608AB98BB1837F8BB95098519A87B1E2
:10026000806387B944980E94B90080E480937C0041
:1002700087E880937A008FE080937E0008958091D4
:10028000710685FB882780F991E089270895809180
:10029000710686FB882780F991E08927089580916F
:1002A000710683FB882780F991E089270895809162
:1002B00071068295817091E0892708958091710679
:1002C000809581700895809171068695817008955A
:1002D0008091710682FB882780F908953F924F92A2
:1002E0005F926F927F928F929F92AF92BF92CF92C6
:1002F000DF92EF92FF920F931F93CF93DF9300D083
:1003000000D0CDB7DEB72C010E943F018170209153
:100310007106022E000C330B209530952227330FE7
:10032000221F3327220F331F382E322A0E94470103
:1003300081708B831C828B819C81880F991F880F11
:10034000991F382A0E944F01082F017010E0C80140
:10035000880F991F880F991F880F991F382A0E94AC
:10036000570180FBEE24E0F8F12CC70182959295AD
:10037000907F9827807F9827382A0E945E0180FB13
:10038000CC24C0F8D12CC601880F991F8295929574
:10039000907F9827807F9827382A8FE99FE00197E0
:1003A000F1F700C0000091E0491A510809F491C02A
:1003B000332009F4A9CFEFEFF1EE24E0E150F04053
:1003C0002040E1F700C00000332009F457C00E942C
:1003D0003F01817020917106022E000C330B209595
:1003E00030952227330F221F3327220F331F182F58
:1003F000122B0E944701817089831A8229813A81D8
:10040000220F331F220F331F122B0E944F0180FB3C
:10041000662460F8712CF301EE0FFF1FEE0FFF1F33
:10042000EE0FFF1F1E2B0E94570180FB882480F8CF
:10043000912CB40162957295707F7627607F762744
:10044000162B0E945E0180FBAA24A0F8B12CA50106
:10045000440F551F42955295507F5427407F542793
:10046000412B342A8FE99FE00197F1F700C000008B
:1004700091E0491A510879F14111A9CFEFEFF1EE5E
:1004800024E0E150F0402040E1F700C0000084E0AB
:100490003816A9F0831538F091E03916F1F0E2E052
:1004A0003E1659F014C0F0E13F1669F020E2321612
:1004B00061F088E038120BC004C082E00FC083E016
:1004C0000DC084E00BC085E009C086E007C080E075
:1004D00005C080E003C080E001C081E00F900F9074
:1004E0000F900F90DF91CF911F910F91FF90EF90A0
:1004F000DF90CF90BF90AF909F908F907F906F9044
:100500005F904F903F900895209A8AB1806E8AB98B
:1005100008952A9808952B9A08952B98089585E3B5
:100520008A95F1F70000299A85E38A95F1F7000092
:10053000299885E38A95F1F70000089580FF02C0AD
:10054000289A01C0289881FF02C05F9A01C05F9875
:1005500082FF02C05E9A01C05E9883FF02C05D9A6E
:1005600008955D980895CF93C82F82958F700E944B
:100570009E020E948F028C2F0E949E020E948F0278
:10058000CF9108950E94840284B18E6084B90E9444
:1005900089020E948B0229980895CF93C82F0E9448
:1005A0008B028C2F0E94B302CF910895CF93C82F56
:1005B0000E948D028C2F0E94B302CF91089581E09A
:1005C0000E94D6028FE19EE40197F1F700C000007F
:1005D000089582E00E94D6028FE19EE40197F1F730
:1005E00000C0000008958F7380640E94D60287ECDB
:1005F00090E00197F1F700C00000089580680E9424
:10060000D60287EC90E00197F1F700C00000089552
:100610000F931F93CF93DF930E94C2022FEF81EEBF
:1006200094E0215080409040E1F700C000000E941B
:100630008D0283E00E949E020E948F028FE39CE95C
:100640000197F1F700C000000E948D0283E00E9434
:100650009E020E948F028FE99FE00197F1F700C090
:1006600000000E948D0283E00E949E020E948F0281
:100670008FE99FE00197F1F700C000000E948D0212
:1006800082E00E949E020E948F028FE99FE0019704
:10069000F1F700C0000088E20E94D60287EC90E0EB
:1006A0000197F1F700C000008FE00E94D6028FE3AF
:1006B0009FE10197F1F700C0000086E00E94D6029A
:1006C0008FE39FE10197F1F700C000000E94DF0275
:1006D0000E94E90280E00E94F302CEEFD5E00EE333
:1006E00016E089910E94CD028FE99FE00197F1F712
:1006F00000C00000C017D107A1F780E00E94FE02F1
:100700001092800610927F0610920707109206073B
:10071000A1E5B6E0E1E6F6E021E736E080E28D9380
:100720008193E217F307D9F7ECE7F6E01082118224
:1007300083E084BD8AE085BD84E687BD81E0809347
:100740006E007894DF91CF911F910F9108951F92C1
:100750000F920FB60F921124EF92FF920F931F93F7
:100760002F933F934F935F936F937F938F939F93B9
:10077000AF93BF93CF93DF93EF93FF9380917F0667
:1007800090918006009709F05FC0E0910607F09114
:100790000707E730F10508F091C2EC5CFF4F0C94BD
:1007A00056170E948D0288E00E949E0280910607E3
:1007B00090910707019690930707809306077EC2E2
:1007C000299A809106079091070701969093070751
:1007D0008093060773C229988091060790910707B6
:1007E0000196909307078093060768C280E00E94F5
:1007F0009E02809106079091070701969093070744
:10080000809306075BC2299A80910607909107079B
:100810000196909307078093060750C2299880910C
:1008200006079091070701969093070780930607A4
:1008300045C281E090E09093800680937F061092FD
:100840000707109206073AC2813191050CF069C082
:10085000E0910607F0910707E730F10508F02EC296
:10086000E55CFF4F0C9456170E948B02E0917F06C7
:10087000F0918006E05BF94F808182958F700E9435
:100880009E028091060790910707019690930707B3
:100890008093060713C2299A809106079091070753
:1008A0000196909307078093060708C229988091C4
:1008B0000607909107070196909307078093060714
:1008C000FDC1FC01E05BF94F80810E949E02809196
:1008D00006079091070701969093070780930607F4
:1008E000EDC1299A80910607909107070196909390
:1008F000070780930607E2C1299880910607909127
:10090000070701969093070780930607D7C10196C2
:100910009093800680937F06109207071092060737
:10092000CDC18131910509F05FC0E0910607F091DA
:100930000707E730F10508F0C1C1EE5BFF4F0C94EB
:1009400056170E948D028CE00E949E02809106073D
:100950009091070701969093070780930607AEC111
:10096000299A8091060790910707019690930707AF
:1009700080930607A3C129988091060790910707E5
:100980000196909307078093060798C180E00E9424
:100990009E028091060790910707019690930707A2
:1009A000809306078BC1299A8091060790910707CB
:1009B0000196909307078093060780C1299880913C
:1009C0000607909107070196909307078093060703
:1009D00075C182E190E09093800680937F0610922B
:1009E0000707109206076AC1823291050CF069C0B0
:1009F000E0910607F0910707E730F10508F05EC1C6
:100A0000E75BFF4F0C9456170E948B02E0917F0624
:100A1000F0918006E15BF94F808182958F700E9492
:100A20009E02809106079091070701969093070711
:100A30008093060743C1299A809106079091070782
:100A40000196909307078093060738C129988091F3
:100A50000607909107070196909307078093060772
:100A60002DC1FC01E15BF94F80810E949E028091C3
:100A70000607909107070196909307078093060752
:100A80001DC1299A809106079091070701969093BE
:100A900007078093060712C1299880910607909155
:100AA00007070196909307078093060707C10196F1
:100AB0009093800680937F06109207071092060796
:100AC000FDC08232910509F084C0E0910607F091E3
:100AD0000707E730F10508F0F1C0E05BFF4F0C9429
:100AE000561780917C0681110FC00E948D0288E00C
:100AF0000E949E02809106079091070701969093AD
:100B0000070780930607DAC0813079F40E948D02CE
:100B10008CE00E949E028091060790910707019643
:100B20009093070780930607C9C00E948D028BE04F
:100B30000E949E028091060790910707019690936C
:100B4000070780930607BAC0299A809106079091FB
:100B5000070701969093070780930607AFC029986F
:100B6000809106079091070701969093070780935D
:100B70000607A4C080917D060E949E028091060710
:100B8000909107070196909307078093060796C0F8
:100B9000299A80910607909107070196909307077D
:100BA000809306078BC029988091060790910707CC
:100BB0000196909307078093060780C083E290E038
:100BC0009093800680937F06109207071092060785
:100BD00075C00196883B2BE092072CF49093800619
:100BE00080937F066BC01092800610927F06109251
:100BF00007071092060700918106002309F440C000
:100C0000809146068F5F809346068330C8F18091BD
:100C100047068F5F801718F48093470602C0109232
:100C2000470630914A06332349F1E8E4F6E0418172
:100C300050E0808120E1829FC0011124EC01C40FAB
:100C4000D51FCF5AD94FE0904706F12CE41AF50A88
:100C5000A701481B590B20E0415556407A0110E08E
:100C6000C7018C0F9D1FB8010E942317FC01EE578E
:100C7000F94F808189932F5F231790F310924606D6
:100C80000E949E00882321F08CE08093600603C0C0
:100C900080E2809360060E94B000823021F48DE0F3
:100CA000809370060BC00E94B000813021F48EE06A
:100CB0008093700603C080E280937006FF91EF91ED
:100CC000DF91CF91BF91AF919F918F917F916F9164
:100CD0005F914F913F912F911F910F91FF90EF9056
:100CE0000F900FBE0F901F901895FA0190819923D5
:100CF000A1F0603190F4DA011196F0E18F9F90013C
:100D00001124F901E60FF11DEF5AF94F90836F5F3F
:100D10009D91992311F06031A1F70895CF92DF9250
:100D2000EF92FF920F931F93CF93DF93E82FD62F6D
:100D30008A01552374F480E1E89FD0011124A60FA5
:100D4000B11DAF5AB94F8DE28C93DF5F11950195BC
:100D500011090115110539F0003187E2180774F007
:100D600020E137E21DC080E1E89FF0011124ED0F82
:100D7000F11DEF5AF94F80E3808331C020E137E263
:100D80000F2EFAE0EF2EF12CF02DC901B7010E94D1
:100D900023179B0106171707C4F316161706FCF452
:100DA0000F2EFAE0CF2ED12CF02D80E1E89F7001BC
:100DB0001124C801B9010E942317C62F8C01C90153
:100DC000B6010E9423179B01F701ED0FF11DEF5AA9
:100DD000F94FC05DC083DF5F1616170654F3DF912D
:100DE000CF911F910F91FF90EF90DF90CF900895DA
:100DF0004F925F926F927F92AF92BF92CF92DF92AB
:100E0000EF92FF920F931F93CF93DF9300D000D008
:100E100000D0CDB7DEB7182F062F69017A0196E012
:100E2000E4E9F1E0DE01119601900D929A95E1F767
:100E300020E030E04AE754E4C701B6010E94B11651
:100E4000882354F420E030E048EC52ECC701B601AE
:100E50000E945215181634F085E4898382E58A834E
:100E60008B8341C020E030E040E251E4C701B6018D
:100E70000E94B6160E94C9152B013C0120E030E00B
:100E8000A901C701B6010E945215882374F48DE2AE
:100E90008983882799278419950964E670E00E9460
:100EA000231716161706ACF016C0C20168EE73E0E1
:100EB0000E9423171616170614F4605D698364E612
:100EC00070E00E942317161617061CF029812033A4
:100ED00010F0605D6A836AE070E00E942317605D35
:100EE0006B83805D8D83AE014F5F5F4F602F812FDD
:100EF0000E94750626960FB6F894DEBF0FBECDBFD2
:100F0000DF91CF911F910F91FF90EF90DF90CF90E5
:100F1000BF90AF907F906F905F904F900895A1E544
:100F2000B6E0E1E6F6E021E736E080E28D938193DA
:100F3000E217F307D9F7109281068FEF80937C06B2
:100F40000895D901109281063C91332381F090E0FD
:100F5000E92FF0E0EE57F94F30839F5F90938106C1
:100F6000FD01E90FF11D30813111F2CF01C0932F46
:100F7000E92FF0E0EE57F94F20E220833AE2318387
:100F8000228323E0290F20938106E8E4F6E08083A2
:100F9000618342839F5F90934706109246060895AF
:100FA00083E08093B0008DE08093B1008CE7809364
:100FB000B30081E0809370001092B6007894109294
:100FC0004D0610924E0610924F0610925006109247
:100FD000020710920307109204071092050710925F
:100FE0004C0610924B0608952F923F924F925F92BB
:100FF0006F927F928F929F92AF92BF92CF92DF9229
:10100000EF92FF920F931F93CF93DF9300D01F9225
:10101000CDB7DEB7482E8A01662E712C20E1829F63
:10102000C00111249C01260D371DA9014F5A594FAB
:101030005A016894222423F89301280F391FF901DB
:10104000EE5AF94F7F016894552455F89301280F03
:10105000391FA9014D5A594F5B834A839301280FC9
:10106000391FF901EC5AF94F4F012B5A394F390109
:101070000F2EF9E03F2EF02D0F2EFCE7CF2EF6E0DD
:10108000DF2EF02D6D5F6983F5012082F70150821C
:10109000EA81FB815082F3013082F601408229818E
:1010A0002183C8016AE070E00E942317805DF4018B
:1010B0008083862F972F1816190674F46AE070E063
:1010C0000E942317805DEA81FB8180831616170634
:1010D0001CF4605DF701608380E395E70E946E0178
:1010E000823089F018F4813041F004C0833099F0E7
:1010F000853089F08FEF9FEF10C00230110524F288
:1011000001501109C1CF073EF3E01F070CF0BCCF1F
:101110000F5F1F4FB9CF802F912F0F900F900F901F
:10112000DF91CF911F910F91FF90EF90DF90CF90C3
:10113000BF90AF909F908F907F906F905F904F90F7
:101140003F902F9008952F923F924F925F926F920F
:101150007F928F929F92AF92BF92CF92DF92EF9247
:10116000FF920F931F93CF93DF93CDB7DEB76597B1
:101170000FB6F894DEBF0FBECDBF082FF62EE22EBD
:10118000632EB42EA52E84E1E0E1F1E0DE0111969C
:1011900001900D928A95E1F76894772471F813E035
:1011A00021E0260F2D8B462E512C30E1039FC001EC
:1011B00011249C01240D351DA9014F5A594F4A0194
:1011C0006894332433F8F901E95AF94F2F010F2EAF
:1011D000F9E02F2EF02D0F2EFCE7CF2EF6E0DF2EBC
:1011E000F02D2E2D362D4B2D5A2D6D89802F0E94DE
:1011F000F806F4013082F2012082F6010083812F8B
:101200008F0D818380E395E70E946E01823029F182
:1012100018F4813031F046C08330D9F18430E9F1DF
:1012200041C0E12FF0E03197EE0FFF1FEE0FFF1FDF
:1012300021E030E02C0F3D1FE20FF31F20813181B0
:10124000428153816E2D762D8B2D9A2D0E94E514AF
:10125000E62E672EB82EA92E26C0E12FF0E031979A
:10126000EE0FFF1FEE0FFF1F41E050E04C0F5D1F20
:10127000E40FF51F20813181428153816E2D762D3F
:101280008B2D9A2D0E94E614E62E672EB82EA92EDD
:101290000AC01F5F143039F417C054E07516B1F05E
:1012A000172D01C010E077247A94710E84E0871521
:1012B00008F097CF112319F03B2D2A2D0CC0E12CFB
:1012C000612C3AE724EC07C015E001C013E0772455
:1012D0007A94710E86CF6E2D762D832F922F659680
:1012E0000FB6F894DEBF0FBECDBFDF91CF911F9137
:1012F0000F91FF90EF90DF90CF90BF90AF909F90B5
:101300008F907F906F905F904F903F902F900895B7
:101310002F923F924F925F926F927F928F929F9205
:10132000AF92BF92CF92DF92EF92FF920F931F93F3
:10133000CF93DF93CDB7DEB72C970FB6F894DEBF0F
:101340000FBECDBF49835A836B837C83282E312CFB
:10135000F101EE0FFF1FE45FFE4F808191810E943B
:101360009817009709F48CC08130910589F0F1013C
:10137000EE0FFF1FE85FFE4F8080918004E010E0D9
:1013800044244394512C5C0121E0A21AB1080EC000
:10139000F101EE0FFF1FEC5FFE4F808191810E94F3
:1013A000921772C0EFEF4E1A5E0A8C013201C4012F
:1013B000800F911F0E9492176B017C0129813A8155
:1013C0004B815C810E94521588232CF4C80104963D
:1013D0004A145B043CF3F1E06F1AF0EC7F0A660CF0
:1013E000771C660C771CC401860D971D0E9492170E
:1013F0006D837E838F839887F101EE0FFF1FEC5F73
:10140000FE4FA080B180C501860D971D0E949217E6
:1014100069877A878B879C87C501800F911F0E94FF
:10142000921729853A854B855C850E94E5144B010E
:101430005C012D813E814F81588569817A818B8144
:101440009C810E94E5149B01AC01C501B4010E947E
:10145000B6164B015C012D813E814F815885C70135
:10146000B6010E94E5149B01AC01C501B4010E94C4
:10147000571529853A854B855C850E94E61404C082
:1014800060E070E088EC91E42C960FB6F894DEBF33
:101490000FBECDBFDF91CF911F910F91FF90EF90C5
:1014A000DF90CF90BF90AF909F908F907F906F9084
:1014B0005F904F903F902F9008950F931F93CF937D
:1014C000DF93CCE0D1E062E070E0888199810E94F6
:1014D000BE1762E070E08A819B810E94BE1708E01F
:1014E00011E040E050E0BA01F801808191810E9452
:1014F000B617F8018081918140E050E06DE473E41B
:1015000004960E94B617C4E0D1E040E050E0BA0172
:10151000888199810E94B6178881998140E050E0C6
:1015200068EC72E404960E94B61740E050E0BA01FD
:10153000F801828193810E94B617F801828193811C
:1015400040E050E06DE473E404960E94B61740E07A
:1015500050E0BA018A819B810E94B6178A819B81E3
:1015600040E050E068EC72E404960E94B61740E058
:1015700050E060E272E480910201909103010E94C8
:10158000B617809102019091030140E050E060EABB
:1015900072E404960E94B6178091020190910301B3
:1015A00040E050E060E272E408960E94B617809135
:1015B00002019091030140E050E060EA72E40C9671
:1015C0000E94B6176FE070E08091000190910101D8
:1015D0000E94BE17DF91CF911F910F910895CF9276
:1015E000DF92EF92FF920F931F93CF93DF93CDB7CC
:1015F000DEB7C057D1090FB6F894DEBF0FBECDBF1E
:1016000080E7E4E2F1E0DE01119601900D928A9507
:10161000E1F70E948F078FEF80937C062AE931E083
:101620004FE060E080E00E94A10700E010E00F2E94
:10163000F6E0CF2EF02DD12CE12CF12CA801429513
:101640005295507F5427407F542781E090E08C0FC3
:101650009D1F480F591F60E081E00E94750680E3DE
:1016600095E70E946E01823089F018F4813031F0E4
:10167000E5CF833089F0853079F0E0CF0F5F1F4FE1
:1016800007301105DCF20E2D1F2DD8CF01501109A6
:10169000AAF60C2D1D2DD2CFC801C059DF4F0FB6B1
:1016A000F894DEBF0FBECDBFDF91CF911F910F9198
:1016B000FF90EF90DF90CF90089580917E06882371
:1016C00009F447C04BEC51E060E080E00E947506F1
:1016D0004BED51E060E081E00E9475060E94AC0095
:1016E0002FEF83ED90E3215080409040E1F700C060
:1016F00000000E94A60010927E0624C02FEF81EE0B
:1017000094E0215080409040E1F700C000008091BB
:101710007E068823B9F04BEC51E060E080E00E9447
:1017200075064BEE51E060E081E00E9475062FEFF8
:1017300083ED90E3215080409040E1F700C000002D
:1017400081E008950E9463018823C1F20E94AC00E9
:1017500081E008952F923F924F925F926F927F9215
:101760008F929F92AF92BF92CF92DF92EF92FF92B1
:101770000F931F93CF93DF93CDB7DEB728970FB6A4
:10178000F894DEBF0FBECDBF0E948F078FEF80930E
:101790007C0610927E064BEF51E060E080E00E94F4
:1017A00075064BE052E060E081E00E9475060E9401
:1017B000A60023C02FEF31EE44E0215030404040DE
:1017C000E1F700C0000080917E068823B1F04BEC69
:1017D00051E060E080E00E9475064BEE51E060E071
:1017E00081E00E9475065FEF83ED90E351508040E9
:1017F0009040E1F700C0000018C20E9463018823F6
:10180000C9F20E94AC000E948F072BE132E04FE04A
:1018100060E080E00E94A1074EE552E060E081E0D8
:101820000E94750680910001909101010E94981715
:10183000AC0164E081E00E94F4078C010E948F07F4
:10184000101611060CF0F1C10E945D0B8111EDC163
:10185000B80180910001909101010E94BE174EE6EF
:1018600052E060E080E00E9475064BE052E060E0EC
:1018700081E00E9475060E94A9000DC0EFEFF1EE15
:1018800024E0E150F0402040E1F700C000000E9459
:101890005D0B8111CAC10E946801882379F30E94FF
:1018A000AC001092020710920307109204071092E6
:1018B00005072CE3209FC001219F900D11242C01CE
:1018C000990F660877080EE316E03DC12CE330E07F
:1018D00040E050E00E9437172D833E834F835887A6
:1018E00069837A838B839C83F801C080D180E280F6
:1018F000F38084809580A680B7802090020130908C
:101900000301C1010E9492179B01AC01C701B601FE
:101910000E945215882374F4C10108960E94921700
:101920009B01AC01C501B4010E945215882314F437
:101930000E94A2002090020130900301C101049690
:101940000E9492179B01AC01C701B6010E94B1161B
:10195000181664F0C1010C960E9492179B01AC010D
:10196000C501B4010E94B116181614F40E94A40017
:101970004EE752E060E080E00E9475064EE852E0DB
:1019800060E081E00E947506A701960163E080E0B7
:101990000E94F806A501940163E081E00E94F80628
:1019A0004D815E816BE080E00E948E0649815A8104
:1019B0006BE081E00E948E060E94A600FFEF29E600
:1019C00038E1F15020403040E1F700C000000E94B3
:1019D0005D0B81112AC10E94AC004FEF59E688E1EE
:1019E000415050408040E1F700C000000E945D0B74
:1019F00081111BC18091020790910307A0910407F8
:101A0000B0910507A3019201281B390B4A0B5B0B10
:101A1000CA01B9012CE330E040E050E00E943717E2
:101A20002D833E834F83588769837A838B839C837E
:101A3000F801C080D180E280F38084809580A68008
:101A4000B7802090020130900301C1010E949217DB
:101A50009B01AC01C701B6010E945215882374F4A2
:101A6000C10108960E9492179B01AC01C501B40107
:101A70000E945215882314F40E94A20020900201B3
:101A800030900301C10104960E9492179B01AC01A2
:101A9000C701B6010E94B116181664F0C1010C9678
:101AA0000E9492179B01AC01C501B4010E94B116BE
:101AB000181614F40E94A4004EE752E060E080E0A3
:101AC0000E9475064EE852E060E081E00E947506D3
:101AD000A701960163E080E00E94F806A501940149
:101AE00063E081E00E94F8064D815E816BE080E05A
:101AF0000E948E0649815A816BE081E00E948E0629
:101B00000E94A9000DC0FFEF21EE34E0F15020400B
:101B10003040E1F700C000000E945D0B811185C0DC
:101B20000E946801882379F30E94AC004FEF59E6C8
:101B300088E1415050408040E1F700C000000E9421
:101B40005D0B811172C08091020790910307A091F3
:101B50000407B0910507A3019201281B390B4A0B1A
:101B60005B0BCA01B90112161306140615060CF414
:101B7000ADCE0E94AC004BEF51E060E080E00E94EF
:101B800075064BE052E060E081E00E9475063FEF91
:101B900049E658E1315040405040E1F700C00000B4
:101BA0000E94A60023C08FEF91EEE4E081509040A8
:101BB000E040E1F700C0000080917E068823B1F08C
:101BC0004BEC51E060E080E00E9475064BEE51E086
:101BD00060E081E00E947506FFEF23ED30E3F150F5
:101BE00020403040E1F700C000001FC00E946301A8
:101BF0008823C9F20E94AC000E94B5004EE952E071
:101C000060E080E00E9475064BE052E060E081E019
:101C10000E9475064FEF53ED80E3415050408040E5
:101C2000E1F700C000000E94B70028960FB6F894B4
:101C3000DEBF0FBECDBFDF91CF911F910F91FF90FF
:101C4000EF90DF90CF90BF90AF909F908F907F905C
:101C50006F905F904F903F902F900895CF930E9488
:101C60008F078FEF80937C06CFEF0E949E008C172A
:101C700001F10E949E00C82F882371F02EEA32E005
:101C80004FE060E080E00E94A10740EC52E060E09D
:101C900081E00E9475060DC020ED32E04FE060E06B
:101CA00080E00E94A10744EE52E060E081E00E94E3
:101CB000750688EE93E00E946E01843099F018F466
:101CC000833031F0D2CF853019F0863059F0CDCF46
:101CD0000E949E00882319F00E94A400C6CF0E9493
:101CE000A200C3CFCF9108950E948F078FEF8093FA
:101CF0007C0624EF32E04FE060E080E00E94A10724
:101D00000E944F0181114AC00E945E01811146C0AC
:101D1000809171068823B4F00E946301882349F002
:101D200048E353E060E081E00E9475060E94AC0049
:101D30002BC00E94A60041E453E060E081E00E94D5
:101D4000750622C00E943F018823B1F00E946801FD
:101D5000882349F00E94AC0048E353E060E081E052
:101D60000E94750611C00E94A9004AE453E060E099
:101D700081E00E94750608C00E94AC0043E553E074
:101D800060E081E00E9475062FEF83EC99E021501E
:101D900080409040E1F700C00000B2CF08952F923C
:101DA0003F924F925F926F927F928F929F92AF92EB
:101DB000BF92CF92DF92EF92FF920F931F93CF9338
:101DC000DF93CDB7DEB7CD50D1400FB6F894DEBF6C
:101DD0000FBECDBF3C010E948F072CE533E04FE0E2
:101DE00060E080E00E94A10740EB53E060E081E00A
:101DF0000E94750680E593EC0E946E01853009F023
:101E000073C22EEB33E04FE060E080E00E94A10758
:101E100080E593EC0E946E01853009F065C222E1F5
:101E200034E04FE060E080E00E94A10780E593ECA1
:101E30000E946E01853009F057C22BE434E04FE078
:101E400060E080E00E94A10780E593EC0E946E01B3
:101E5000853009F049C20E948F07C75FDE4F688254
:101E6000C950D140862D0E947D00BC01990F880B7E
:101E7000990B0E940116CF5FDE4F688379838A83B6
:101E80009B83C150D14046E954E060E080E00E946D
:101E9000750646EA54E060E081E00E9475068FEF27
:101EA00080937C06412C512CE12CF12C08EC11E4A0
:101EB00033243A94212C52014301E3C021E0A216BD
:101EC000B104D1F04D805E806F807884A3019201CF
:101ED000CF5FDE4F688179818A819B81C150D1407B
:101EE0000E94B11618160CF040C0C5010197029768
:101EF000C4F401E0122D3BC0CF57DF4FE880C1583A
:101F0000D040CE57DF4FF880C258D040CD57DF4F7A
:101F10000881C358D040CC57DF4F1881C458D040F7
:101F2000B0C0CE0109967C01650191E0C91AD108C3
:101F300001E0122D0F5F1F4FD7014D905D906D9006
:101F40007D907D01A3019201CF5FDE4F6881798191
:101F50008A819B81C150D1400E94B11618163CF471
:101F60000C151D0539F7860102C001E0122DC801CC
:101F70000197880F991F880F991FE1E8F0E0EC0F97
:101F8000FD1FE80FF91FC080D180E280F380E1E0FF
:101F9000F0E0EC0FFD1FE80FF91F80819181A28115
:101FA000B381C65FDE4F88839983AA83BB83CA50FF
:101FB000D140F801EE0FFF1FEE0FFF1FA1E8B0E0C8
:101FC000AC0FBD1FEA0FFB1FA70196016081718155
:101FD000828193810E94E514CB5FDE4F6883798311
:101FE0008A839B83C550D140C65FDE4F28813981EB
:101FF0004A815B81CA50D140CF5FDE4F68817981D1
:102000008A819B81C150D1400E94E5149B01AC01A3
:10201000CB5FDE4F688179818A819B81C550D14039
:102020000E94B616CB5FDE4F688379838A839B83D9
:10203000C550D140C65FDE4F288139814A815B811E
:10204000CA50D140C301B2010E94E5149B01AC010A
:10205000CB5FDE4F688179818A819B81C550D140F9
:102060000E9457159B01AC01C701B6010E94E614FE
:10207000E62EF72E082F192F04C0E12CF12C08ECC6
:1020800011E42E2D3F2D402F512F69E080E00E945A
:10209000F80688EE93E00E946E01833021F08430D0
:1020A00009F408C1A4C044EB54E060E080E00E9461
:1020B000750644EC54E060E081E00E9475062E2D28
:1020C0003F2D402F512F62E081E00E94A3082B0199
:1020D0003C0120E030E048EC52EC0E94B1161816AA
:1020E0000CF085C0CF5FDE4F288139814A815B814A
:1020F000C150D14069817A818B819C810E945215A7
:1021000088230CF51A141B040CF5FE0135967F018B
:1021100000E010E00F5F1F4FD7016D917D918D9111
:102120009D917D01CF5FDE4F288139814A815B819E
:10213000C150D1400E945215882354F40A151B0542
:1021400049F7850105C000E010E002C000E010E0A2
:10215000C5010197801791073CF1F501EE0FFF1FB4
:10216000EE0FFF1FA1E0B0E0AC0FBD1FAE0FBF1F11
:1021700021E830E02C0F3D1FE20FF31F7E916E919E
:102180005E914E9114964D935D936D937C9317974A
:102190007291629152914291448355836683778311
:1021A00001978017910754F7000F111F000F111F9F
:1021B000E1E0F0E0EC0FFD1FE00FF11FCF5FDE4F1D
:1021C00088819981AA81BB81C150D140808391834C
:1021D000A283B383E1E8F0E0EC0FFD1FE00FF11FF5
:1021E00040825182628273829FEFA91AB90AC75F47
:1021F000DE4F8881C950D1400E947D00BC01990FFB
:10220000880B990B0E940116CF5FDE4F688379839C
:102210008A839B83C150D14046E954E060E080E06E
:102220000E94750646EA54E060E081E00E9475066F
:10223000ACE7B6E03C92A114B10409F03FCE1DCF4B
:102240008301000F111FF801E45FFE4FB20180818E
:1022500091810E94BE17440C551C440C551CF8017A
:10226000E85FFE4F60817181A201CE0101960E945C
:102270009E17F801EC5FFE4F60817181A201CE01D3
:102280008F579F4F0E949E1743ED54E060E080E01F
:102290000E94750643EE54E060E081E00E947506FE
:1022A000BFEFE7EAF1E6B150E040F040E1F700C0EF
:1022B00000001AC02501340143EF54E060E080E0E3
:1022C0000E94750643E055E060E081E00E947506DB
:1022D000A50167E080E00E948E0680E395E70E94FA
:1022E0006E01853009F4ACCFC35FDE4F0FB6F894B2
:1022F000DEBF0FBECDBFDF91CF911F910F91FF9039
:10230000EF90DF90CF90BF90AF909F908F907F9095
:102310006F905F904F903F902F9008955F926F92D3
:102320007F928F929F92AF92BF92CF92DF92EF9265
:10233000FF920F931F93CF93DF930E948F078FEF2E
:1023400080937C0623E135E04FE060E080E00E946E
:10235000A107C0E0D0E00F2EFCE7EF2EF6E0FF2E45
:10236000F02DDD24DA94712CC12C0F2EF3E05F2EBA
:10237000F02D612CC130D10591F01CF4209741F073
:1023800022C0C230D10591F0C330D105B1F01BC0DD
:102390004EE655E060E081E00E94750614C04EE70D
:1023A00055E060E081E00E9475060DC04EE855E002
:1023B00060E081E00E94750606C04EE955E060E0ED
:1023C00081E00E9475068E01000F111F000F111F82
:1023D0008091020190910301800F911F0E9492173A
:1023E0009B01AC0167E081E00E94F80680E197E282
:1023F0000E946E018330D9F028F4813051F0823090
:1024000081F0B8CF853099F008F43DC08630D9F11D
:10241000B1CF2196C430D1050CF4ACCFC72DDC2D43
:10242000A9CF21970AF0A6CFC52DD62DA3CF4BE07B
:1024300052E060E081E00E94750680910201909177
:102440000301800F911F0E9492179B01AC0163E072
:1024500081E00E94A3084B015C01F701D08220E0DB
:1024600030E048EC52EC0E94B11618160CF082CF06
:102470008091020190910301B501A401800F911F89
:102480000E94B61777CFDF91CF911F910F91FF90E8
:10249000EF90DF90CF90BF90AF909F908F907F9004
:1024A0006F905F9008952F923F924F925F926F923C
:1024B0007F928F929F92AF92BF92CF92DF92EF92D4
:1024C000FF920F931F93CF93DF93CCE0D1E08881ED
:1024D00099810E9498178C017C018A819B810E94BE
:1024E00098171C010E948F078FEF80937C06C0E035
:1024F000D0E0200E311E8FEF9FE36C01C01AD10A8D
:102500000F2EF8E08F2EF1E09F2EF02D0F2EF4E02D
:10251000AF2EF1E0BF2EF02D0F2EFEE36F2EF6E072
:102520007F2EF02D0F2EF2E74F2EF6E05F2EF02DCE
:102530002097E1F54EEA55E060E080E00E947506E4
:102540004EEB55E060E081E00E947506F3012081CA
:1025500031814281538168E080E00E94F806F201F7
:1025600060817181072E000C880B990B0E94011667
:10257000AB01BC0180E00E9488099B01AC0168E0CE
:1025800081E00E94F80688EE93E00E946E0182309E
:1025900009F496C020F4813009F485C0C9CF843095
:1025A00009F490C0863009F48DC0C2CFEC16FD0648
:1025B000ACF14EEC55E060E080E00E9475064EED17
:1025C00055E060E081E00E947506AE01415051097E
:1025D0006BE080E00E948E068E010150104C000FCF
:1025E000111F000F111FF40180819181800F911F35
:1025F0000E9492179B01AC0160E081E00E94F80606
:10260000F50180819181800F911F0E9492179B019B
:10261000AC0168E081E00E94F80636C04EEE55E05D
:1026200060E080E00E9475064EED55E060E081E0DC
:102630000E947506AE01415051094E195F096BE0C9
:1026400080E00E948E0686010C0F1D1F000F111FD7
:10265000000F111FF40182819381800F911F0E944E
:1026600092179B01AC0160E081E00E94F806F50141
:1026700082819381800F911F0E9492179B01AC0170
:1026800068E081E00E94F80688EE93E00E946E0107
:10269000823099F018F4813031F04ACF843091F0D3
:1026A000863081F045CF21962C163D060CF040CFA8
:1026B000F0E0CF2F80E0D82F3BCF21970AF038CF22
:1026C000E10136CFDF91CF911F910F91FF90EF90F5
:1026D000DF90CF90BF90AF909F908F907F906F9042
:1026E0005F904F903F902F9008954F925F926F921E
:1026F0007F928F929F92AF92BF92CF92DF92EF9292
:10270000FF92CF93DF930E94B9000E945701882364
:1027100059F00E945E01882339F00E94AC000E94AB
:10272000A40081E080937E06E0914B06F0914C0678
:10273000CF01019625E030E0B9010E942317EC019A
:10274000CF01B9010E9423170E948E00FE01EE0FF7
:10275000FF1FEE58F94F408151819A01220F331F1C
:10276000220F331F220F331F241B350B820F931FA1
:102770009595879595958795959587959183808370
:1027800080914B0690914C0664E670E00E942317FE
:10279000892B09F080C0C2E7D6E068817981072ED5
:1027A000000C880B990B0E940116AB01BC0180E064
:1027B0000E9488096B017C018A819B81BC01990F71
:1027C000880B990B0E940116AB01BC0181E00E94AD
:1027D00088094B015C01CEE3D6E026E636E646E604
:1027E0005FE3688179818A819B810E94B6162B0103
:1027F0003C012DEC3CEC4CEC5DE3C701B6010E94C2
:10280000B6169B01AC01C301B2010E94E6146B0134
:102810007C01688379838A839B8326E636E646E6D5
:102820005FE36C817D818E819F810E94B6162B01B2
:102830003C012DEC3CEC4CEC5DE3C501B4010E9485
:10284000B6169B01AC01C301B2010E94E6144B0114
:102850005C016C837D838E839F83C0910201D09144
:102860000301CE0104960E9492179B01AC01C7019F
:10287000B6010E94B116181664F0CE010C960E94A3
:1028800092179B01AC01C501B4010E94B116181644
:1028900014F40E94A400DF91CF91FF90EF90DF909D
:1028A000CF90BF90AF909F908F907F906F905F90F0
:1028B0004F9008951F920F920FB60F9211242F93ED
:1028C0003F934F935F936F937F938F939F93AF93B8
:1028D000BF93EF93FF9380914D0690914E06A09188
:1028E0004F06B09150060196A11DB11D80934D0673
:1028F00090934E06A0934F06B093500680914B06DE
:1029000090914C060196883E23E092072CF4909318
:102910004C0680934B0617C010924C0610924B0643
:102920008091020790910307A0910407B0910507D9
:102930000196A11DB11D8093020790930307A093F8
:102940000407B09305070E947513FF91EF91BF91A3
:10295000AF919F918F917F916F915F914F913F9137
:102960002F910F900FBE0F901F9018950E94250178
:102970000E94B5000E9408030E94D0070E94B70081
:102980000E945D0A0E94EF0A87309105D8F7895AA4
:102990009F4FFC010C9456170E94AA0BF3CF0E9484
:1029A0002E0EF0CF0E94740EEDCF0E945312EACF8C
:1029B0000E948E11E7CF80E090E00E94CF0EE2CF20
:1029C00081E090E00E94CF0EDDCF5058BB27AA27B0
:1029D0000E94FD140C9477160E94691638F00E942C
:1029E000701620F039F49F3F19F426F40C94661603
:1029F0000EF4E095E7FB0C946016E92F0E94881610
:102A000058F3BA17620773078407950720F079F423
:102A1000A6F50C94AA160EF4E0950B2EBA2FA02D55
:102A20000B01B90190010C01CA01A0011124FF277B
:102A3000591B99F0593F50F4503E68F11A16F04076
:102A4000A22F232F342F4427585FF3CF4695379575
:102A50002795A795F0405395C9F77EF41F16BA0B3A
:102A6000620B730B840BBAF09150A1F0FF0FBB1FE8
:102A7000661F771F881FC2F70EC0BA0F621F731F31
:102A8000841F48F4879577956795B795F7959E3F8E
:102A900008F0B0CF9395880F08F09927EE0F97951F
:102AA000879508950E943C1608F481E008950E94DD
:102AB0006B150C9477160E94701658F00E946916D8
:102AC00040F029F45F3F29F00C94601651110C94EA
:102AD000AB160C9466160E94881668F39923B1F31E
:102AE000552391F3951B550BBB27AA276217730734
:102AF000840738F09F5F5F4F220F331F441FAA1FC8
:102B0000A9F335D00E2E3AF0E0E832D09150504083
:102B1000E695001CCAF72BD0FE2F29D0660F771F31
:102B2000881FBB1F261737074807AB07B0E809F017
:102B3000BB0B802DBF01FF2793585F4F3AF09E3F9C
:102B4000510578F00C9460160C94AB165F3FE4F3DB
:102B5000983ED4F3869577956795B795F7959F5FDF
:102B6000C9F7880F911D9695879597F90895E1E02B
:102B7000660F771F881FBB1F621773078407BA078A
:102B800020F0621B730B840BBA0BEE1F88F7E095E5
:102B900008950E94D0156894B1110C94AB16089555
:102BA0000E94901688F09F5798F0B92F9927B75137
:102BB000B0F0E1F0660F771F881F991F1AF0BA95E1
:102BC000C9F714C0B13091F00E94AA16B1E008957F
:102BD0000C94AA16672F782F8827B85F39F0B93F71
:102BE000CCF3869577956795B395D9F73EF4909594
:102BF0008095709561957F4F8F4F9F4F0895E89412
:102C000009C097FB3EF490958095709561957F4F34
:102C10008F4F9F4F9923A9F0F92F96E9BB279395E2
:102C2000F695879577956795B795F111F8CFFAF4F2
:102C3000BB0F11F460FF1BC06F5F7F4F8F4F9F4F23
:102C400016C0882311F096E911C0772321F09EE881
:102C5000872F762F05C0662371F096E8862F70E0E7
:102C600060E02AF09A95660F771F881FDAF7880FC1
:102C70009695879597F90895990F0008550FAA0B17
:102C8000E0E8FEEF16161706E807F907C0F012167F
:102C90001306E407F50798F0621B730B840B950B82
:102CA00039F40A2661F0232B242B252B21F40895D7
:102CB0000A2609F4A140A6958FEF811D811D089574
:102CC00097F99F6780E870E060E008959FEF80ECDF
:102CD000089500240A941616170618060906089582
:102CE00000240A9412161306140605060895092EE8
:102CF0000394000C11F4882352F0BB0F40F4BF2B57
:102D000011F460FF04C06F5F7F4F8F4F9F4F089596
:102D100057FD9058440F551F59F05F3F71F047958C
:102D2000880F97FB991F61F09F3F79F08795089571
:102D3000121613061406551FF2CF4695F1DF08C090
:102D4000161617061806991FF1CF869571056105AD
:102D500008940895E894BB2766277727CB0197F955
:102D600008950E943C1608F48FEF08950E94C9163A
:102D70000C9477160E94691638F00E94701620F0A5
:102D8000952311F00C9460160C94661611240C9483
:102D9000AB160E94881670F3959FC1F3950F50E013
:102DA000551F629FF001729FBB27F00DB11D639FFD
:102DB000AA27F00DB11DAA1F649F6627B00DA11DA3
:102DC000661F829F2227B00DA11D621F739FB00D49
:102DD000A11D621F839FA00D611D221F749F3327B9
:102DE000A00D611D231F849F600D211D822F762F52
:102DF0006A2F11249F5750409AF0F1F088234AF02F
:102E0000EE0FFF1FBB1F661F771F881F915050409A
:102E1000A9F79E3F510580F00C9460160C94AB16F8
:102E20005F3FE4F3983ED4F3869577956795B79521
:102E3000F795E7959F5FC1F7FE2B880F911D96953B
:102E4000879597F9089597FB072E16F4009407D0FD
:102E500077FD09D00E945C1707FC05D03EF49095E1
:102E600081959F4F0895709561957F4F0895052E28
:102E700097FB1EF400940E944E1757FD07D00E9446
:102E8000701707FC03D04EF40C944E1750954095E4
:102E9000309521953F4F4F4F5F4F08959095809506
:102EA000709561957F4F8F4F9F4F0895EE0FFF1FD5
:102EB0000590F491E02D0994AA1BBB1B51E107C0BA
:102EC000AA1FBB1FA617B70710F0A61BB70B881FBA
:102ED000991F5A95A9F780959095BC01CD01089549
:102EE000A1E21A2EAA1BBB1BFD010DC0AA1FBB1F0E
:102EF000EE1FFF1FA217B307E407F50720F0A21B80
:102F0000B30BE40BF50B661F771F881F991F1A94EC
:102F100069F760957095809590959B01AC01BD0116
:102F2000CF010895A6E1B0E044E050E00C94C5174D
:102F3000A8E1B0E042E050E00C94C517DC01CB0101
:102F400003C02D910E94A91741505040D0F7089519
:102F5000262FF999FECF1FBA92BD81BD20BD0FB6B5
:102F6000F894FA9AF99A0FBE01960895242F0E94B8
:102F7000A917252F0E94A9170C94BE170E94A81705
:102F8000272F0C94A917DC01CB01FC01F999FECF86
:102F900006C0F2BDE1BDF89A319600B40D924150E1
:0A2FA0005040B8F70895F894FFCFF1
:102FAA0018020802040184010400840000000200DF
:102FBA000000C842000020410000803F00000000DD
:102FCA00CDCCCC3D436F72726F657220706C6163B9
:102FDA0061202000417175656365646F72204C2F12
:102FEA00442020005375706F727465202020532F7F
:102FFA0044202000496E666F207465726D6F6D659E
:10300A0074726F0054656D702E204D6178696D6120
:10301A007320200043616C69622E207465726D2EE4
:10302A002031200043616C69622E207465726D2E16
:10303A00203220002020302E300053656C656369F1
:10304A006F6E65206F2071756520646573656A61AE
:10305A002066617A657220636F6D2063696D612FE6
:10306A00626169786F2065204F4B00202020205034
:10307A0041524144412020202020002020434F5229
:10308A00524F53414F2020202020002020454D45FB
:10309A005247454E4349412020200020204C4556A6
:1030AA00414E54414E444F20202000202020202011
:1030BA002020202020202020202000436F6C6F71C8
:1030CA007565206120706C616361206E6F20737575
:1030DA00706F727465206520656E74726520636F07
:1030EA006D2074656D706F20646520636F72726FF6
:1030FA0073616F20286D696E75746F7329002020C3
:10310A002020202020202020206D696E20002020F1
:10311A002044455343454E444F202020200054313B
:10312A003A20202020202020202020206D00543208
:10313A003A202020202020202020736567002020AC
:10314A0020202046494D20202020202020004171A7
:10315A0075656365646F72204C494741444F21008D
:10316A0008766F6C74617220206465736C2E090096
:10317A00417175656365646F72204445534C4947D4
:10318A0041444F0008766F6C74617220206C696745
:10319A0061720900417065727465206F7320626FF5
:1031AA00746F6573200A2065200B2070617261209C
:1031BA0073756269722F646573636572206F207319
:1031CA0075706F727465206F752008207061726166
:1031DA0020766F6C7461720046696D2064652043C5
:1031EA0000537562696E646F200044657363656E8F
:1031FA00646F0050617261646F20200050617261D7
:10320A0020612063616C6962726163616F2C207650
:10321A006F636520646576657261206D616E7465A1
:10322A007220756D207465726D6F6D6574726F2092
:10323A006F206D6169732070726F78696D6F20708D
:10324A006F73736976656C20646F204E54432E0049
:10325A004C65696120652061706F73200900456EB5
:10326A0074616F2C20706172612061646963696F97
:10327A006E617220756D20706F6E746F20646520A8
:10328A0063616C6962726163616F206170657274F7
:10329A006520092065206469676974652061207466
:1032AA00656D706572617475726120617475616CA7
:1032BA002E005175616E646F207469766572207094
:1032CA006F6E746F7320737566696369656E746572
:1032DA00732C2061706572746520082070617261B8
:1032EA002066696E616C697A617200506172612050
:1032FA0073616C766172206F20677275706F2064DB
:10330A006520706F6E746F73206E61206D656D6FCE
:10331A007269612061706572746520656E74616F8F
:10332A0020092E2050617261206465736361727492
:10333A00617220082E00507265766973616F3A20B7
:10334A0020202020DF008F696D202020202020618E
:10335A00646409000A0B080920702F2065646974E7
:10336A0061722000202020202020202020202020E0
:10337A00FC200020202043414C4942524143414F06
:10338A00202000202020434F4E434C5549444120E1
:10339A0020200053616C76617220202020207074F6
:1033AA00733F00086E616F20202020202073696D12
:1033BA00092000436F6E66696775726520617175D1
:1033CA00692061732074656D7065726174757261CC
:1033DA0073206D6178696D61732065206465206171
:1033EA0063696F6E616D656E746F20286D696E69B1
:1033FA006D61732920636F6D200A200B20092E202E
:10340A0008207061726120766F6C74617200546D6D
:10341A00696E20303A202020202020202000546D80
:10342A00617820303A202020202020202000546D6E
:10343A00696E20313A202020202020202000546D5F
:10344A00617820313A202020202020202000546555
:10345A00726D2E313A202020202020202000546531
:10346A00726D2E323A202020202020202000533155
:10347A003A20436F6469676F2020202020002020B3
:10348A00202020202D3E20202020202020005332E2
:10349A003A20436F6469676F2020202020000011C2
:1034AA000A040A11000000010214080000000004C6
:1034BA000404150E040000040E15040404000A0096
:1034CA00150E0E15000A040A11000E0A0A0E110A38
:0E34DA0004000E0A0A0E1F11111111111F001D
:00000001FF
