S00D000073616363692E7372656314
S11300000C9434000C9451000C9451000C94510045
S11300100C9451000C9451000C9451000C94510018
S11300200C9451000C9453130C9451000C945100F3
S11300300C9451000C9451000C9451000C945100F8
S11300400C94CB020C9451000C9451000C9451006C
S11300500C9451000C9451000C9451000C945100D8
S11300600C9451000C94510011241FBECFEFD8E022
S1130070DEBFCDBF16E0A0E0B1E0E0E5FDE202C0E6
S113008005900D92A632B107D9F726E0A6E2B6E0B4
S113009001C01D92A13EB207E1F70E94AF130C9478
S11300A0A6160C9400008770806480937C00EAE7B5
S11300B0F0E0808180648083808186FDFDCF209183
S11300C0780030917900822F932F08952091780041
S11300D0309179008770806480937C00EAE7F0E0D7
S11300E0808180648083822F932F089581E0459BD3
S11300F080E00895459A0895459808955A985B9A22
S113010008955B985A9A08958BB1837F8BB90895AB
S11301108BB186958695837008953D9A45988AB1EA
S11301208C608AB98BB1837F8BB98AB18C7E8AB992
S11301303C9885B78F7E85BF8BB183618BB9449A18
S113014087B1837F87B988B1837F88B980E480933E
S11301507C0087E880937A0083E080937E00089592
S113016086B18295817091E08927089589B182953D
S1130170817091E08927089589B1809581700895EF
S113018089B18695817091E08927089581E0329B39
S113019080E0089581E0339B80E008954F925F9260
S11301A06F927F928F929F92AF92BF92CF92DF9283
S11301B0EF92FF920F931F93CF93DF933C010E9422
S11301C0B600582E0E94B000482E0E94BC00242D78
S11301D02170C22F90E0D92F9E01220F331F082FC8
S11301E0017010E0A801440F551F440F551F422B06
S11301F0852D8170542E582A0E94C00080FBEE2465
S1130200E0F8F12CA701440F551F440F551F440F6C
S1130210551F45298FE99FE00197F1F700C00000C1
S113022091E0691A710809F463C0442341F22FEF85
S113023081EE94E0215080409040E1F700C000003E
S11302404423C9F1C42F0E94B600182F0E94B000A5
S1130250D82F0E94BC00D0FB882480F8912CB401D4
S1130260660F771F80FBCC24C0F8D12CF601EE0F6B
S1130270FF1FEE0FFF1FE62B1170DE2FD12B0E9404
S1130280C00080FBAA24A0F8B12CF501EE0FFF1FDB
S1130290EE0FFF1FEE0FFF1FED2BCE2B8FE99FE01C
S11302A00197F1F700C0000091E0691A710811F19B
S11302B0E111C9CF01C0C42F2FEF81EE94E021508A
S11302C080409040E1F700C00000C230A9F018F46B
S11302D0C13061F405C0C43029F0C83039F404C019
S11302E081E00BC083E009C084E007C080E005C062
S11302F080E003C080E001C082E0DF91CF911F91D4
S11303000F91FF90EF90DF90CF90BF90AF909F90B0
S11303108F907F906F905F904F90089584B18F601D
S113032084B908955E9808955D9A08955D98089536
S113033085E38A95F1F700005F9A85E38A95F1F7E2
S113034000005F9885E38A95F1F70000089595B160
S11303508F70907F982B95B90895CF93C82F82956D
S11303608F700E94A7010E9498018C2F0E94A70100
S11303700E949801CF9108950E948E018AB1806EE7
S11303808AB90E9492010E9494015F9885B1806F9E
S113039085B90895CF93C82F0E9494018C2F0E9491
S11303A0AD01CF910895CF93C82F0E9496018C2F51
S11303B00E94AD01CF91089581E00E94D3018FE1A5
S11303C09EE40197F1F700C00000089582E00E94C6
S11303D0D3018FE19EE40197F1F700C00000089576
S11303E0811102C084E001C086E0611181600E9435
S11303F0D3018FE39FE10197F1F700C00000089556
S1130400811102C088E001C08CE061118260411159
S113041081600E94D3018FE39FE10197F1F700C04F
S113042000000895811102C080E201C080E36111DF
S11304308860411184600E94D30187EC90E00197A9
S1130440F1F700C0000008958F7380640E94D30107
S113045087EC90E00197F1F700C0000008958068F0
S11304600E94D30187EC90E00197F1F700C00000EF
S113047008950F931F93CF93DF930E94BC012FEF36
S113048081EE94E0215080409040E1F700C00000EC
S11304900E94960183E00E94A7010E9498018FE3C5
S11304A09CE90197F1F700C000000E94960183E0E7
S11304B00E94A7010E9498018FE99FE00197F1F73C
S11304C000C000000E94960183E00E94A7010E94E0
S11304D098018FE99FE00197F1F700C000000E94A6
S11304E0960182E00E94A7010E9498018FE99FE093
S11304F00197F1F700C0000040E061E080E00E9455
S1130500120241E061E081E00E94000260E081E0CB
S11305100E94F0010E94DC010E94E60180E00E943A
S11305202402C4E9D1E004ED11E089910E94CA01DA
S11305308FE99FE00197F1F700C00000C017D107D1
S1130540A1F780E00E942F021092590610925806DB
S11305501092E0061092DF06A1E3B6E0E1E4F6E0D3
S113056081E596E020E22D932193E817F907D9F766
S1130570109255061092560683E084BD8AE085BD2C
S113058084E687BD81E080936E007894DF91CF91FB
S11305901F910F9108951F920F920FB60F9211247D
S11305A01F932F933F934F935F936F937F938F93F7
S11305B09F93AF93BF93CF93DF93EF93FF93809178
S11305C0580690915906009709F06BC08091DF0698
S11305D09091E00683309105B1F13CF481309105AE
S11305E0E1F034F5892B51F0CFC28530910509F43F
S11305F042C0B4F1069709F0C7C248C00E949601F0
S113060088E00E94A7018091DF069091E0060196A0
S11306109093E0068093DF06B7C25F9A8091DF066D
S11306209091E00601969093E0068093DF06ACC2B9
S11306305F988091DF069091E00601969093E00622
S11306408093DF06A1C280E00E94A7018091DF06AB
S11306509091E00601969093E0068093DF0694C2A1
S11306605F9A8091DF069091E00601969093E006F0
S11306708093DF0689C25F988091DF069091E0063F
S113068001969093E0068093DF067EC281E090E0BD
S113069090935906809358061092E0061092DF0654
S11306A073C2813191050CF078C02091DF0630913E
S11306B0E0062330310509F440C03CF42130310513
S11306C031F184F5232B61F05FC22530310509F443
S11306D04FC00CF442C02630310509F055C253C056
S11306E00E949401E0915806F0915906E05DF94F9B
S11306F0808182958F700E94A7018091DF0690917E
S1130700E00601969093E0068093DF063DC25F9A6F
S11307108091DF069091E00601969093E006809325
S1130720DF0632C25F988091DF069091E006019661
S11307309093E0068093DF0627C2FC01E05DF94F49
S113074080810E94A7018091DF069091E0060196C6
S11307509093E0068093DF0617C25F9A8091DF06CC
S11307609091E00601969093E0068093DF060CC218
S11307705F988091DF069091E00601969093E006E1
S11307808093DF0601C20196909359068093580620
S11307901092E0061092DF06F7C18131910509F04D
S11307A06BC08091DF069091E00683309105B1F132
S11307B03CF481309105E1F034F5892B51F0E4C12A
S11307C08530910509F442C0B4F1069709F0DCC103
S11307D048C00E9496018CE00E94A7018091DF0628
S11307E09091E00601969093E0068093DF06CCC1D9
S11307F05F9A8091DF069091E00601969093E0065F
S11308008093DF06C1C15F988091DF069091E00676
S113081001969093E0068093DF06B6C180E00E94C3
S1130820A7018091DF069091E00601969093E0067F
S11308308093DF06A9C15F9A8091DF069091E0065C
S113084001969093E0068093DF069EC15F988091A5
S1130850DF069091E00601969093E0068093DF0610
S113086093C182E190E090935906809358061092C8
S1130870E0061092DF0688C1823291050CF078C040
S11308802091DF063091E0062330310509F440C0A1
S11308903CF42130310531F184F5232B61F074C12E
S11308A02530310509F44FC00CF442C0263031051F
S11308B009F06AC153C00E949401E0915806F09176
S11308C05906E15DF94F808182958F700E94A701DE
S11308D08091DF069091E00601969093E006809364
S11308E0DF0652C15F9A8091DF069091E00601967F
S11308F09093E0068093DF0647C15F988091DF06FE
S11309009091E00601969093E0068093DF063CC147
S1130910FC01E15DF94F80810E94A7018091DF060F
S11309209091E00601969093E0068093DF062CC137
S11309305F9A8091DF069091E00601969093E0061D
S11309408093DF0621C15F988091DF069091E006D5
S113095001969093E0068093DF0616C1019690936A
S11309605906809358061092E0061092DF060CC1D7
S11309708232910509F094C08091DF069091E006DF
S11309808330910509F45DC04CF48130910509F47C
S113099042C00CF04BC0892B59F0F6C0853091054C
S11309A009F468C00CF45BC0069709F0EDC06DC093
S11309B08091550681110FC00E94960188E00E9423
S11309C0A7018091DF069091E00601969093E006DE
S11309D08093DF06D9C0813079F40E9496018CE0BF
S11309E00E94A7018091DF069091E0060196909302
S11309F0E0068093DF06C8C00E9496018BE00E9447
S1130A00A7018091DF069091E00601969093E0069D
S1130A108093DF06B9C05F9A8091DF069091E0066B
S1130A2001969093E0068093DF06AEC05F988091B4
S1130A30DF069091E00601969093E0068093DF062E
S1130A40A3C0809156060E94A7018091DF06909171
S1130A50E00601969093E0068093DF0695C05F9AC6
S1130A608091DF069091E00601969093E0068093D2
S1130A70DF068AC05F988091DF069091E0060196B8
S1130A809093E0068093DF067FC083E290E090932A
S1130A905906809358061092E0061092DF0674C03F
S1130AA00196883B2BE092072CF49093590680938F
S1130AB058066AC010925906109258061092E00621
S1130AC01092DF0610915A06112309F43FC0809159
S1130AD026068F5F809326068330C0F18091270617
S1130AE08F5F811718F48093270602C0109227069F
S1130AF0C0912A06CC2341F1809128064091290611
S1130B0020E1829FC001112450E0FC01E40FF51F95
S1130B10EF5CF94F2091270630E0241B350B281B8E
S1130B20390B40E021533640D0E0C9018E0F9F1F9E
S1130B30612F7D2F0E94FF15DC01A55AB94F8C91BE
S1130B4081934F5F4C1788F3109226060E9476001B
S1130B50882321F08CE08093400603C080E28093D8
S1130B6040060E948800823021F48DE08093500674
S1130B700BC00E948800813021F48EE080935006DF
S1130B8003C080E280935006FF91EF91DF91CF91F3
S1130B90BF91AF919F918F917F916F915F914F9191
S1130BA03F912F911F910F900FBE0F901F9018959A
S1130BB0FA012081222399F0603188F4319630E1E2
S1130BC0839FC0011124DC01A60FB11DAF5CB94F96
S1130BD02C936F5F2191222311F06031A1F70895C6
S1130BE0FF920F931F93CF93DF93C82FF62EFA0132
S1130BF0FF2374F480E1C89FD0011124A60FB11D16
S1130C00AF5CB94F8DE28C93F394F195E195F109C2
S1130C10309739F0E03187E2F80774F020E137E2E9
S1130C201AC080E1C89FE0011124CF0DD11DCF5C13
S1130C30D94F80E388832CC020E137E20AE010E03A
S1130C40C901B8010E94FF159B01E617F707C4F319
S1130C5016161706ECF40AE010E080E1C89FE001E4
S1130C601124CF01B9010E94FF15462FE82FF92F57
S1130C70C901B8010E94FF159B01DE01AF0DB11D32
S1130C80AF5CB94F405D4C93F394161617064CF3C2
S1130C90DF91CF911F910F91FF900895AF92BF9272
S1130CA0CF92DF92EF92FF920F931F93CF93DF9334
S1130CB000D000D000D0CDB7DEB7182F062F6901C1
S1130CC07A0186E0E4EDF1E0DE01119601900D92E7
S1130CD08A95E1F720E030E04AE754E4C701B60121
S1130CE00E949815882354F420E030E048EC52EC3C
S1130CF0C701B6010E944914181634F085E48983AB
S1130D0082E58A838B833DC020E030E040E251E4F9
S1130D10C701B6010E949C150E94B5145B0120E036
S1130D2030E0A901C701B6010E94491488233CF4AC
S1130D308DE28983662777276A197B090DC0C5016F
S1130D4068EE73E00E94FF159B01682F792F12163D
S1130D50130614F4205D2983CB0164E670E00E943D
S1130D60FF15161617061CF02981203310F0605D5C
S1130D706A836AE070E00E94FF15605D6B83805DAA
S1130D808D83AE014F5F5F4F602F812F0E94D80586
S1130D9026960FB6F894DEBF0FBECDBFDF91CF917C
S1130DA01F910F91FF90EF90DF90CF90BF90AF9085
S1130DB00895A1E3B6E0E1E4F6E081E596E020E2FF
S1130DC02D932193E817F907D9F710925A0608953D
S1130DD010925A06F9015081552381F090E0E92FD1
S1130DE0F0E0E55AF94F50839F5F90935A06F9015A
S1130DF0E90FF11D50815111F2CF01C090E0E92FAC
S1130E00F0E0E55AF94F20E220833AE2318322836D
S1130E10292F2D5F20935A06809328066093290674
S1130E2040932A069F5F9093270610922606089502
S1130E3083E08093B0008DE08093B1008CE78093D1
S1130E40B30081E0809370001092B6007894109201
S1130E502D0610922E0610922F0610923006109234
S1130E60DB061092DC061092DD061092DE0610926C
S1130E702C0610922B0608952F923F924F925F9268
S1130E806F927F928F929F92AF92BF92CF92DF9296
S1130E90EF92FF920F931F93CF93DF9300D01F9293
S1130EA0CDB7DEB7982E522E632E742E852E262EA5
S1130EB02394C62ED12C20E1829FC00111249C01D1
S1130EC02C0D3D1D0F2EF1E3AF2EF6E0BF2EF02DBD
S1130ED0A20EB31E6894332433F80F2EF7E3CF2EFB
S1130EE0F6E0DF2EF02DC20ED31E0F2EF9E04F2EAA
S1130EF0F02D0F2EF5E5EF2EF6E0FF2EF02D06E592
S1130F0016E06B5F6983652D762D872D982D0E94E1
S1130F10B5147B836A83AB01622D892D0E94F00591
S1130F20F5013082F6014082F70190822981F801AF
S1130F30208380E395E70E94CE00823099F08330CD
S1130F4021F18130F1F420E030E040E85FE3652DE9
S1130F50762D872D982D0E94E413562E672E782E19
S1130F60892ED1CF20E030E040E85FE3652D762D77
S1130F70872D982D0E94E513562E672E782E892EE4
S1130F80C2CF8FEF9FEF9B838A838A819B810F90CF
S1130F900F900F90DF91CF911F910F91FF90EF90E1
S1130FA0DF90CF90BF90AF909F908F907F906F9085
S1130FB05F904F903F902F9008952F923F924F92C1
S1130FC05F926F927F928F929F92AF92BF92CF92D5
S1130FD0DF92EF92FF920F931F93CF93DF93CDB7DE
S1130FE0DEB764970FB6F894DEBF0FBECDBF882E70
S1130FF0362E422E532E642E752E84E1E0E1F1E06C
S1131000DE01119601900D928A95E1F70F2EF3E01F
S11310109F2EF02D262E2394C62ED12C20E1829EC5
S1131020C00111249C012C0D3D1D0F2EF1E3AF2EA8
S1131030F6E0BF2EF02DA20EB31E0F2EF7E3CF2E37
S1131040F6E0DF2EF02DC20ED31E0F2EF5E5EF2EA7
S1131050F6E0FF2EF02D06E516E0242D352D462D65
S1131060572D622D882D0E944E0628E0F50120831D
S113107029E0F6012083F7018082892D830DF80190
S1131080808380E395E70E94CE00823039F120F41A
S1131090813009F049C006C08330E1F1843009F0A1
S11310A043C03DC0E92DF0E03197EE0FFF1FEE0F76
S11310B0FF1F81E090E08C0F9D1FE80FF91F208136
S11310C0318142815381642D752D862D972D0E9487
S11310D0E413462E572E682E792E27C0E92DF0E012
S11310E03197EE0FFF1FEE0FFF1F81E090E08C0F92
S11310F09D1FE80FF91F2081318142815381642DA6
S1131100752D862D972D0E94E513462E572E682E99
S1131110792E0BC0939494E0991207C018C09A9446
S1131120E4E09E1202C018C0912C892D81508530B4
S113113008F493CF911015C0412C512C0F2EFAE7CF
S11311406F2EF02D0F2EF4EC7F2EF02D0AC00F2EF3
S1131150F5E09F2EF02D81CF0F2EF3E09F2EF02D82
S11311607CCF642D752D862D972D64960FB6F8943B
S1131170DEBF0FBECDBFDF91CF911F910F91FF90C6
S1131180EF90DF90CF90BF90AF909F908F907F9023
S11311906F905F904F903F902F9008952F923F92C1
S11311A04F925F926F927F928F929F92AF92BF9273
S11311B0CF92DF92EF92FF920F931F93CF93DF931F
S11311C0CDB7DEB728970FB6F894DEBF0FBECDBFFC
S11311D04A015B01282F30E03A832983F901EE0F9D
S11311E0FF1FE45FFE4F808191810E946B16282EC1
S11311F0392E2114310409F48DC031E02316310451
S113120091F0E981FA81EE0FFF1FE85FFE4F6080E5
S1131210718084E090E09E838D8301E010E091E092
S1131220291A31080FC0E981FA81EE0FFF1FEC5F24
S1131230FE4F808191810E94651670C00F5F1F4F21
S11312409E838D8328018D819E81860D971D0E942A
S113125065166B017C01A50194010E944914882341
S113126034F48D819E810496021513053CF3A1E0AC
S11312704A1A51088201000F111F000F111FC301E8
S1131280800F911F0E9465162B013C01E981FA81B0
S1131290EE0FFF1FEC5FFE4F20803180C101800FF5
S11312A0911F0E94651669837A838B839C838D8149
S11312B09E81820D931D0E94651629813A814B817E
S11312C05C810E94E4136D837E838F839887A301DE
S11312D09201C501B4010E94E4139B01AC016D812C
S11312E07E818F8198850E949C154B015C01A3012E
S11312F09201C701B6010E94E4139B01AC01C50130
S1131300B4010E944D1429813A814B815C810E9471
S1131310E51304C060E070E088EC91E428960FB611
S1131320F894DEBF0FBECDBFDF91CF911F910F9117
S1131330FF90EF90DF90CF90BF90AF909F908F90F1
S11313407F906F905F904F903F902F900895CF9330
S1131350DF9365E070E080910C0190910D010E9493
S1131360911665E070E080910E0190910F010E944A
S11313709116C8E0D1E040E050E060E87FE3888166
S113138099810E9489168881998140E050E060E04B
S113139070E404960E9489168881998140E050E0A7
S11313A060E470E408960E9489168881998140E07F
S11313B050E060E870E40C960E9489168881998157
S11313C040E050E060EA70E440960E948916C4E070
S11313D0D1E040E050E0BA01888199810E948916E9
S11313E0888199814AE959E96AE872E404960E947D
S11313F08916888199814AE959E96BED72E4089666
S11314000E948916888199814AE959E96AE073E45E
S11314100C960E9489168881998146E656EE60E210
S113142073E440960E948916CAE0D1E040E050E09F
S113143060E87FE3888199810E9489168881998177
S113144040E050E060E070E404960E9489168881D0
S1131450998140E050E060E470E408960E948916A7
S11314608881998140E050E060E870E40C960E9425
S113147089168881998140E050E060EA70E44096E2
S11314800E948916C6E0D1E040E050E0BA018881AC
S113149099810E948916888199814AE959E96AE803
S11314A072E404960E948916888199814AE959E96F
S11314B06BED72E408960E948916888199814AE945
S11314C059E96AE073E40C960E948916888199812F
S11314D046E656EE60E273E440960E94891640E0C8
S11314E050E060E272E480910201909103010E9455
S11314F08916809102019091030140E050E060EA76
S113150072E404960E94891680910201909103016D
S113151040E050E060E272E408960E9489168091EF
S113152002019091030140E050E060EA72E40C96FD
S11315300E9489166FE070E0809100019091010192
S11315400E949116DF91CF910895CF92DF92EF928E
S1131550FF920F931F93CF93DF93CDB7DEB7C0579E
S1131560D1090FB6F894DEBF0FBECDBF80E7E4E229
S1131570F1E0DE01119601900D928A95E1F70E9447
S1131580D9068FEF809355062AED31E04FE060E0F5
S113159080E00E94E80600E010E0E12CF12C0F2E20
S11315A0F6E0CF2ED12CF02D03C0870101C08601B7
S11315B0A80142955295507F5427407F542781E0DB
S11315C090E08C0F9D1F480F591F60E081E00E943E
S11315D0D80580E395E70E94CE00823051F0833035
S11315E061F0813029F70F5F1F4F08301105ECF6C9
S11315F0DFCF01501109E2F6DACF802F912FC059C5
S1131600DF4F0FB6F894DEBF0FBECDBFDF91CF9191
S11316101F910F91FF90EF90DF90CF9008952F923C
S11316203F924F925F926F927F928F929F92AF926E
S1131630BF92CF92DF92EF92FF920F931F93CF93BB
S1131640DF930E94D9068FEF8093550610925706B8
S11316504BE052E060E080E00E94D8054BE152E0AC
S113166060E081E00E94D8050E947E0023C02FEF35
S113167031EE44E0215030404040E1F700C000002A
S1131680809157068823B1F04BE252E060E080E09D
S11316900E94D8054BE352E060E081E00E94D80547
S11316A05FEF83ED90E3515080409040E1F700C03C
S11316B00000F6C10E94C6008823C9F20E9484007B
S11316C00E94D9062BE432E04FE060E080E00E9403
S11316D0E8064EE852E060E081E00E94D80580917F
S11316E00001909101010E946B16BC0180E090E022
S11316F00E94E6149B01AC0164E081E00E943C0777
S1131700EC010E94D9061C161D060CF0C9C180917B
S113171057068823B1F04BE252E060E080E00E947B
S1131720D8054BE352E060E081E00E94D805EFEF7A
S1131730F3ED20E3E150F0402040E1F700C0000069
S1131740AFC1BE0180910001909101010E949116E8
S11317504EE952E060E080E00E94D8054BE152E09F
S113176060E081E00E94D8050E94810023C03FEF21
S113177041EE54E0315040405040E1F700C00000D9
S1131780809157068823B1F04BE252E060E080E09C
S11317900E94D8054BE352E060E081E00E94D80546
S11317A08FEF93EDE0E381509040E040E1F700C01B
S11317B0000076C10E94CA008823C9F20E948400F6
S11317C01092DB061092DC061092DD061092DE0603
S11317D02CE32C9FC0012D9F900D11242C01662415
S11317E057FC6094762C14141504160417040CF09A
S11317F00AC1C301B2012CE330E040E050E00E9492
S113180013161B018901E1E5F6E0608171818827E7
S113181077FD8095982F0E94E814AB01BC0180E00D
S11318200E94CE086B017C01E3E5F6E060817181E2
S1131830882777FD8095982F0E94E814AB01BC019E
S113184081E00E94CE084B015C01809157068823F9
S1131850B1F04BE252E060E080E00E94D8054BE337
S113186052E060E081E00E94D805FFEF23ED30E311
S1131870F15020403040E1F700C0000011C1C09198
S11318800201D0910301CE010E9465169B01AC01B7
S1131890C701B6010E944914882374F4CE01089646
S11318A00E9465169B01AC01C501B4010E94491454
S11318B0882314F40E947A00C0910201D09103019C
S11318C0CE0104960E9465169B01AC01C701B601C6
S11318D00E949815181664F0CE010C960E946516A5
S11318E09B01AC01C501B4010E949815181614F4AB
S11318F00E947C004EEA52E060E080E00E94D8053D
S11319004EEB52E060E081E00E94D805A701960109
S113191063E080E00E944E06A501940163E081E04B
S11319200E944E06A8016BE080E00E94F005A10130
S11319306BE081E00E94F0050E947E004FEF59E6C3
S113194088E1415050408040E1F700C000008091A0
S113195057068823B1F04BE252E060E080E00E9439
S1131960D8054BE352E060E081E00E94D8059FEF88
S1131970E3EDF0E39150E040F040E1F700C00000F7
S11319808FC00E94810023C02FEF31EE44E021502C
S113199030404040E1F700C00000809157068823A2
S11319A0B1F04BE252E060E080E00E94D8054BE3E6
S11319B052E060E081E00E94D8055FEF83ED90E3A0
S11319C0515080409040E1F700C0000069C00E947F
S11319D0CA008823C9F20E9484008091DB0690919A
S11319E0DC06A091DD06B091DE06A3019201281B5E
S11319F0390B4A0B5B0BCA01B90112161306140604
S1131A0015060CF4F8CE4BE052E060E080E00E9452
S1131A10D8054BE152E060E081E00E94D8050E94C5
S1131A207E0023C03FEF41EE54E03150404050402F
S1131A30E1F700C00000809157068823B1F04BE223
S1131A4052E060E080E00E94D8054BE352E060E0A1
S1131A5081E00E94D8058FEF93EDE0E38150904040
S1131A60E040E1F700C000001BC00E94C6008823CC
S1131A70C9F20E9484004EEC52E060E080E00E94D3
S1131A80D8054BE152E060E081E00E94D805FFEF09
S1131A9023ED30E3F15020403040E1F700C0000076
S1131AA0DF91CF911F910F91FF90EF90DF90CF9036
S1131AB0BF90AF909F908F907F906F905F904F906A
S1131AC03F902F900895CF930E94D9068FEF809373
S1131AD05506CFEF0E9476008C1701F10E94760024
S1131AE0C82F882371F02EED32E04FE060E080E0F3
S1131AF00E94E80640EF52E060E081E00E94D805D1
S1131B000DC020E033E04FE060E080E00E94E80692
S1131B1044E153E060E081E00E94D80588EE93E060
S1131B200E94CE00833019F08430A1F60AC00E94CE
S1131B307600882319F00E947C00CCCF0E947A00A2
S1131B40C9CFCF9108950E94D9068FEF809355068F
S1131B5024E233E04FE060E080E00E94E8060E9467
S1131B60C000811134C00E94B000882369F00E9433
S1131B70C600811109C00E947E0048E653E060E07F
S1131B8081E00E94D80519C00E94B600882369F03C
S1131B900E94CA00811109C00E94810041E753E0FC
S1131BA060E081E00E94D80508C00E9484004AE7F2
S1131BB053E060E081E00E94D8052FEF83EC99E0C8
S1131BC0215080409040E1F700C00000C8CF089544
S1131BD02F923F924F925F926F927F928F929F9239
S1131BE0AF92BF92CF92DF92EF92FF920F931F9327
S1131BF0CF93DF93CDB7DEB7C251D1400FB6F8947F
S1131C00DEBF0FBECDBF2C010E94D90623E833E00E
S1131C104FE060E080E00E94E80647ED53E060E0BA
S1131C2081E00E94D80580E593EC0E94CE008330C9
S1131C3009F09CC225EE33E04FE060E080E00E94B2
S1131C40E80680E593EC0E94CE00833009F08EC252
S1131C5029E334E04FE060E080E00E94E80680E59C
S1131C6093EC0E94CE00833009F080C222E734E076
S1131C704FE060E080E00E94E80680E593EC0E947B
S1131C80CE00833009F072C20E94D906C45FDE4FD1
S1131C904882CC50D140842D0E945300BC01882737
S1131CA077FD8095982F0E94E814962E872EB82EE3
S1131CB0A92E4DEB54E060E080E00E94D8054DEC85
S1131CC054E060E081E00E94D8058FEF80935506D0
S1131CD0212C312CE12CF12C08EC11E4CF5EDE4FE9
S1131CE059824882C151D14002C121E022163104F7
S1131CF071F14D805E806F807884A3019201CF5F83
S1131D00DE4FB881C150D140CB5FDE4FA881C550B2
S1131D10D140CA5FDE4FF881C650D140C95FDE4F63
S1131D20E881C750D1406B2F7A2F8F2F9E2F0E94AE
S1131D30981518160CF03FC0710131E0E31AF10850
S1131D4082E0E816F104C4F401E010E036C0CF5795
S1131D50DF4FE880C158D040CE57DF4FF880C258DB
S1131D60D040CD57DF4F0881C358D040CC57DF4F08
S1131D701881C458D040BBC00F2EF9E0CF2ED12C0F
S1131D80F02DCC0EDD1E01E010E00F5F1F4FD601D9
S1131D904D905D906D907D906D01A3019201692D30
S1131DA0782D8B2D9A2D0E949815181634F40E1543
S1131DB01F0559F702C001E010E0C8010197880F20
S1131DC0991F880F991FE1E8F0E0EC0FFD1FE80F61
S1131DD0F91FC080D180E280F380E1E0F0E0EC0FF5
S1131DE0FD1FE80FF91F80819181A281B381C85F33
S1131DF0DE4F88839983AA83BB83C850D140F801FE
S1131E00EE0FFF1FEE0FFF1FA1E8B0E0AC0FBD1FE8
S1131E10EA0FFB1FA7019601608171818281938182
S1131E200E94E413C35FDE4F688379838A839B83B4
S1131E30CD50D140C85FDE4F288139814A815B8112
S1131E40C850D140CF5FDE4FB881C150D140CB5F85
S1131E50DE4FA881C550D140CA5FDE4FF881C6501D
S1131E60D140C95FDE4FE881C750D1406B2F7A2F34
S1131E708F2F9E2F0E94E4139B01AC01C35FDE4FA2
S1131E80688179818A819B81CD50D1400E949C15C3
S1131E90CF5FDE4F688379838A839B83C150D140AF
S1131EA0C85FDE4F288139814A815B81C850D140A7
S1131EB0C301B2010E94E4139B01AC01CF5FDE4F6A
S1131EC0688179818A819B81C150D1400E944D14DF
S1131ED09B01AC01C701B6010E94E513E62EF72E63
S1131EE0082F192F04C0E12CF12C08EC11E42E2D3D
S1131EF03F2D402F512F69E080E00E944E0688EE6E
S1131F0093E00E94CE00833021F0843009F09CC01D
S1131F10D6C04BED54E060E080E00E94D8054BEE63
S1131F2054E060E081E00E94D8052E2D3F2D402F23
S1131F30512F62E081E00E94DD076B017C0120E00B
S1131F4030E048EC52EC0E94981518160CF07CC056
S1131F50292D382D4B2D5A2D69817A818B819C81B5
S1131F600E944914882304F51214130404F50F2E57
S1131F70F5E06F2E712CF02D6C0E7D1E00E010E04C
S1131F800F5F1F4FF30161917191819191913F0115
S1131F90292D382D4B2D5A2D0E94491488234CF499
S1131FA00215130569F705C000E010E002C000E067
S1131FB010E0C1010197801791073CF1F101EE0F88
S1131FC0FF1FEE0FFF1FA1E0B0E0AC0FBD1FAE0F6F
S1131FD0BF1F21E830E02C0F3D1FE20FF31F7E915D
S1131FE06E915E914E9114964D935D936D937C9397
S1131FF017977291629152914291448355836683FB
S1132000778301978017910754F7000F111F000F72
S1132010111FE1E0F0E0EC0FFD1FE00FF11F892D2F
S1132020982DAB2DBA2D80839183A283B383E1E8ED
S1132030F0E0EC0FFD1FE00FF11FC082D182E282BD
S1132040F3823FEF231A330AC45FDE4F8881CC50FA
S1132050D1400E945300BC01882777FD8095982FBA
S11320600E94E814CF5FDE4F6883C150D140CB5F3C
S1132070DE4F7883C550D140CA5FDE4F8883C65097
S1132080D140C95FDE4F9883C750D140962E872E2A
S1132090B82EA92E4DEB54E060E080E00E94D805F4
S11320A04DEC54E060E081E00E94D805EFEFA5E537
S11320B0B6E0EC932114310409F017CE14CFCF5EAF
S11320C0DE4F48805980C151D1404AEF54E060E06E
S11320D080E00E94D8054AE055E060E081E00E947B
S11320E0D805A10167E080E00E94F00580E395E750
S11320F00E94CE008330D1F58201000F111FF80138
S1132100E45FFE4FB101808191810E9491167101BB
S1132110EE0CFF1CEE0CFF1CF801E85FFE4F608123
S11321207181A701CE0101960E947116F801EC5F3E
S1132130FE4F60817181A701CE018F579F4F0E948E
S113214071164AE155E060E080E00E94D8054AE259
S113215055E060E081E00E94D805FFEF27EA31E610
S1132160F15020403040E1F700C00000CE5EDE4F69
S11321700FB6F894DEBF0FBECDBFDF91CF911F9194
S11321800F91FF90EF90DF90CF90BF90AF909F9012
S11321908F907F906F905F904F903F902F90089515
S11321A04F925F926F927F929F92AF92BF92CF9223
S11321B0DF92EF92FF920F931F93CF93DF930E94CE
S11321C0D9068FEF809355062AE335E04FE060E0AF
S11321D080E00E94E806C0E0D0E00F2EF3E0AF2ECE
S11321E0B12CF02D0F2EF5E5EF2EF6E0FF2EF02D9D
S11321F099249A94C12CD12C03C0E60101C0E501B5
S1132200C130D10591F01CF4209741F022C0C230B6
S1132210D10591F0C330D105E1F415C045E955E08D
S113222060E081E00E94D80514C045EA55E060E012
S113223081E00E94D8050DC045EB55E060E081E0E7
S11322400E94D80506C045EC55E060E081E00E949C
S1132250D8058E01000F111F000F111F809102017C
S113226090910301800F911F0E9465169B01AC01A0
S113227067E081E00E944E0680E197E20E94CE0072
S1132280823089F020F4813009F0BACF06C083305F
S113229071F0843009F0B4CF36C02196C430D10532
S11322A00CF0ABCFADCF21970AF0AACFA8CF4BE16A
S11322B052E060E081E00E94D80580910201909193
S11322C00301800F911F0E9465169B01AC0163E01E
S11322D081E00E94DD072B013C01F701908220E0A0
S11322E030E048EC52EC0E94981518160CF088CF98
S11322F08091020190910301B301A201800F911F0B
S11323000E9489167DCFDF91CF911F910F91FF908D
S1132310EF90DF90CF90BF90AF909F907F906F90A1
S11323205F904F9008952F923F924F925F926F92D9
S11323307F928F929F92AF92BF92CF92DF92EF9251
S1132340FF920F931F93CF93DF9380910C01909191
S11323500D010E946B164C018C0180910E0190912D
S11323600F010E946B16E82EF92E0E94D9068FEFFA
S113237080935506C0E0D0E0809490940F2EFAE04C
S1132380AF2EF1E0BF2EF02D0F2EF8E06F2EF1E00E
S11323907F2EF02D0F2EF4E04F2EF1E05F2EF02D66
S11323A018012E0C3F1CC12CD12C01C0E601209732
S11323B0B9F545ED55E060E080E00E94D80545EEB2
S11323C055E060E081E00E94D805E1E5F6E0608137
S11323D07181882777FD8095982F0E94E814AB01BE
S11323E0BC0180E00E94CE089B01AC0168E080E063
S11323F00E944E06E3E5F6E060817181882777FD4F
S11324008095982F0E94E814AB01BC0181E00E94E2
S1132410CE089B01AC0168E081E00E944E066EC0CC
S11324200C171D07A4F145EF55E060E080E00E9421
S1132430D80545E056E060E081E00E94D8057E01C1
S1132440F1E0EF1AF108A7016BE080E00E94F005CB
S1132450EE0CFF1CEE0CFF1CF301808191818E0DAC
S11324609F1D0E9465169B01AC0160E081E00E9403
S11324704E06F201808191818E0D9F1D0E9465168A
S11324809B01AC0168E081E00E944E0637C045E143
S113249056E060E080E00E94D80545E056E060E048
S11324A081E00E94D805AE0141505109401B510BF7
S11324B06BE080E00E94F0057401EC0EFD1EEE0C52
S11324C0FF1CEE0CFF1CF501808191818E0D9F1D78
S11324D00E9465169B01AC0160E081E00E944E06FB
S11324E0E6E0F1E0808191818E0D9F1D0E946516CA
S11324F09B01AC0168E081E00E944E0688EE93E007
S11325000E94CE00823059F0843071F0813009F09D
S11325104ECF21962C163D060CF448CF48CF219778
S11325200AF045CFE10143CFDF91CF911F910F9185
S1132530FF90EF90DF90CF90BF90AF909F908F90DF
S11325407F906F905F904F903F902F9008958F925F
S11325509F92AF92BF92CF92DF92EF92FF92CF936E
S1132560DF930E94B600882359F00E94C00088239C
S113257039F00E9484000E947C0081E08093570619
S113258080912B0680FF1DC080E00E946600E3E579
S1132590F6E020813181A901440F551F440F551FD6
S11325A0440F551FBA01621B730B860F971F9C01C2
S11325B0359527953595279535952795318320832E
S11325C01CC081E00E946600E1E5F6E020813181D3
S11325D0A901440F551F440F551F440F551FBA013D
S11325E0621B730B860F971F9C01359527953595B4
S11325F02795359527953183208380912B069091DB
S11326002C0664E670E00E94FF15892B09F040C097
S11326106091510670915206882777FD8095982F16
S11326200E94E814AB01BC0180E00E94CE086B015B
S11326307C016091530670915406882777FD80953C
S1132640982F0E94E814AB01BC0181E00E94CE08DF
S11326504B015C01C0910201D0910301CE010496AB
S11326600E9465169B01AC01C701B6010E94981532
S1132670181664F0CE010C960E9465169B01AC01FD
S1132680C501B4010E949815181614F40E947C0028
S1132690DF91CF91FF90EF90DF90CF90BF90AF90FC
S11326A09F908F9008951F920F920FB60F9211244E
S11326B02F933F934F935F936F937F938F939F9346
S11326C0AF93BF93EF93FF9380912D0690912E06C5
S11326D0A0912F06B09130060196A11DB11D8093E3
S11326E02D0690932E06A0932F06B093300680916A
S11326F02B0690912C060196883E23E092072CF439
S113270090932C0680932B0617C010922C061092DF
S11327102B068091DB069091DC06A091DD06B0913A
S1132720DE060196A11DB11D8093DB069093DC06A5
S1132730A093DD06B093DE060E94A712FF91EF91ED
S1132740BF91AF919F918F917F916F915F914F91C5
S11327503F912F910F900FBE0F901F9018950E94DC
S11327608D000E9439020E9418070E94A7090E9446
S1132770A50A83309105C1F03CF48130910571F0D4
S113278084F4892B41F0F3CF8530910599F07CF0E6
S1132790069769F714C00E940F0BE9CF0E94630DDE
S11327A0E6CF0E94A30DE3CF0E949311E0CF0E94D5
S11327B0D010DDCF80E090E00E94E80DD8CF81E01A
S11327C090E00E94E80DD3CF5058BB27AA270ED023
S11327D075C166D130F06BD120F031F49F3F11F414
S11327E01EF45BC10EF4E095E7FB51C1E92F77D1EC
S11327F080F3BA17620773078407950718F071F41A
S11328009EF58FC10EF4E0950B2EBA2FA02D0B016F
S1132810B90190010C01CA01A0011124FF27591B21
S113282099F0593F50F4503E68F11A16F040A22F27
S1132830232F342F4427585FF3CF46953795279598
S1132840A795F0405395C9F77EF41F16BA0B620B97
S1132850730B840BBAF09150A1F0FF0FBB1F661FDE
S1132860771F881FC2F70EC0BA0F621F731F841F21
S113287048F4879577956795B795F7959E3F08F047
S1132880B3CF9395880F08F09927EE0F9795879506
S11328900895D9D008F481E008950CD00FC107D170
S11328A040F0FED030F021F45F3F19F0F0C0511138
S11328B039C1F3C014D198F39923C9F35523B1F363
S11328C0951B550BBB27AA2762177307840738F09B
S11328D09F5F5F4F220F331F441FAA1FA9F333D0FA
S11328E00E2E3AF0E0E830D091505040E695001CAE
S11328F0CAF729D0FE2F27D0660F771F881FBB1F6A
S1132900261737074807AB07B0E809F0BB0B802D43
S1132910BF01FF2793585F4F2AF09E3F510568F08F
S1132920B6C000C15F3FECF3983EDCF38695779523
S11329306795B795F7959F5FC9F7880F911D969591
S1132940879597F90895E1E0660F771F881FBB1FED
S1132950621773078407BA0720F0621B730B840B9A
S1132960BA0BEE1F88F7E095089504D06894B1116E
S1132970D9C00895BCD088F09F5790F0B92F9927FB
S1132980B751A0F0D1F0660F771F881F991F1AF076
S1132990BA95C9F712C0B13081F0C3D0B1E008953F
S11329A0C0C0672F782F8827B85F39F0B93FCCF3C0
S11329B0869577956795B395D9F73EF4909580956C
S11329C0709561957F4F8F4F9F4F0895E89409C08C
S11329D097FB3EF490958095709561957F4F8F4F4E
S11329E09F4F9923A9F0F92F96E9BB279395F69564
S11329F0879577956795B795F111F8CFFAF4BB0FE2
S1132A0011F460FF1BC06F5F7F4F8F4F9F4F16C045
S1132A10882311F096E911C0772321F09EE8872FCF
S1132A20762F05C0662371F096E8862F70E060E08B
S1132A302AF09A95660F771F881FDAF7880F969504
S1132A40879597F90895990F0008550FAA0BE0E8A8
S1132A50FEEF16161706E807F907C0F0121613065C
S1132A60E407F50798F0621B730B840B950B39F49C
S1132A700A2661F0232B242B252B21F408950A2602
S1132A8009F4A140A6958FEF811D811D089597F942
S1132A909F6780E870E060E008959FEF80EC089500
S1132AA000240A9416161706180609060895002429
S1132AB00A9412161306140605060895092E0394A3
S1132AC0000C11F4882352F0BB0F40F4BF2B11F417
S1132AD060FF04C06F5F7F4F8F4F9F4F089557FD76
S1132AE09058440F551F59F05F3F71F04795880F78
S1132AF097FB991F61F09F3F79F08795089512160F
S1132B0013061406551FF2CF4695F1DF08C01616BA
S1132B1017061806991FF1CF86957105610508946B
S1132B200895E894BB2766277727CB0197F9089582
S1132B308ADF08F48FEF08950BD0C0CFB1DF28F0FF
S1132B40B6DF18F0952309F0A2CFA7CF1124EACF5E
S1132B50C6DFA0F3959FD1F3950F50E0551F629FF8
S1132B60F001729FBB27F00DB11D639FAA27F00DE2
S1132B70B11DAA1F649F6627B00DA11D661F829F09
S1132B802227B00DA11D621F739FB00DA11D621FEE
S1132B90839FA00D611D221F749F3327A00D611D0B
S1132BA0231F849F600D211D822F762F6A2F1124ED
S1132BB09F5750408AF0E1F088234AF0EE0FFF1F40
S1132BC0BB1F661F771F881F91505040A9F79E3F77
S1132BD0510570F05CCFA6CF5F3FECF3983EDCF379
S1132BE0869577956795B795F795E7959F5FC1F7B4
S1132BF0FE2B880F911D9695879597F9089597FB5D
S1132C00072E16F4009407D077FD09D00E942F16E2
S1132C1007FC05D03EF4909581959F4F08957095DB
S1132C2061957F4F0895052E97FB16F4009407D005
S1132C3057FD0DD00E94431607FC09D07EF49095F1
S1132C408095709561957F4F8F4F9F4F0895509554
S1132C504095309521953F4F4F4F5F4F0895AA1BE4
S1132C60BB1B51E107C0AA1FBB1FA617B70710F073
S1132C70A61BB70B881F991F5A95A9F780959095A5
S1132C80BC01CD010895A1E21A2EAA1BBB1BFD01B4
S1132C900DC0AA1FBB1FEE1FFF1FA217B307E40737
S1132CA0F50720F0A21BB30BE40BF50B661F771F8F
S1132CB0881F991F1A9469F760957095809590956F
S1132CC09B01AC01BD01CF010895A6E1B0E044E051
S1132CD050E00C949816A8E1B0E042E050E00C9467
S1132CE09816DC01CB0103C02D910E947C16415043
S1132CF05040D0F70895262FF999FECF1FBA92BD00
S1132D0081BD20BD0FB6F894FA9AF99A0FBE0196C8
S1132D100895242F0E947C16252F0E947C160C9463
S1132D2091160E947B16272F0C947C16DC01CB0194
S1132D30FC01F999FECF06C0F2BDE1BDF89A3196C7
S1132D4000B40D9241505040B8F70895F894FFCF65
S1132D501802080204018401040084000000020037
S1132D600000C842000020410000803F0000000035
S1132D70CDCCCC3D436F72726F657220706C616311
S1132D8061202000417175656365646F72204C2F6A
S1132D90442020005375706F727465202020532FD7
S1132DA044202000496E666F207465726D6F6D65F6
S1132DB074726F0054656D702E204D6178696D6179
S1132DC07320200043616C69622E207465726D2E3D
S1132DD02031200043616C69622E207465726D2E6F
S1132DE02032200000110A040A110000000102141C
S1132DF00800000000040404150E040000040E156D
S1132E00040404000A00150E0E15000A040A110039
S1132E100E0A0A0E110A04000E0A0A0E1F111111DD
S1132E2011111F002020302E300053656C6563693A
S1132E306F6E65206F2071756520646573656A61C6
S1132E402066617A657220636F6D2063696D612FFE
S1132E50626169786F2065204F4B0020204C4556F5
S1132E60414E54414E444F20202000202020202059
S1132E70202020202020202020200020202020503E
S1132E8041524144412020202020002020454D452E
S1132E905247454E43494120202000436F6C6F71D7
S1132EA07565206120706C616361206E6F2073759D
S1132EB0706F727465206520656E74726520636F2F
S1132EC06D2074656D706F20646520636F72726F1E
S1132ED073616F20286D696E75746F7329002020EB
S1132EE02020202020202020206D696E200020201A
S1132EF02044455343454E444F2020202000543164
S1132F003A20202020202020202020206D00543230
S1132F103A202020202020202020736567002020D4
S1132F2020202046494D20202020202020004171CF
S1132F3075656365646F72204C494741444F2100B5
S1132F4008766F6C74617220206465736C2E0900BE
S1132F50417175656365646F72204445534C4947FC
S1132F6041444F0008766F6C74617220206C69676D
S1132F7061720900417065727465206F7320626F1D
S1132F80746F6573200A2065200B207061726120C4
S1132F9073756269722F646573636572206F207341
S1132FA075706F727465206F75200820706172618E
S1132FB020766F6C74617200537562696E646F2061
S1132FC00044657363656E646F0050617261646F81
S1132FD02020005061726120612063616C6962721B
S1132FE06163616F2C20766F63652064657665721A
S1132FF061206D616E74657220756D207465726DEB
S11330006F6D6574726F206F206D616973207072CB
S11330106F78696D6F20706F73736976656C206467
S11330206F204E54432E004C656961206520617009
S11330306F73200900456E74616F2C20706172619A
S11330402061646963696F6E617220756D20706FB1
S11330506E746F2064652063616C69627261636180
S11330606F2061706572746520092065206469674A
S113307069746520612074656D7065726174757220
S11330806120617475616C2E005175616E646F20EE
S1133090746976657220706F6E746F7320737566D1
S11330A0696369656E7465732C20617065727465FB
S11330B0200820706172612066696E616C697A61B2
S11330C07200506172612073616C766172206F20AE
S11330D0677275706F20646520706F6E746F7320F3
S11330E06E61206D656D6F726961206170657274C7
S11330F06520656E74616F20092E20506172612015
S113310064657363617274617220082E0050726585
S1133110766973616F3A2020202020DF008F696D6B
S113312020202020202061646409000A0B08092063
S1133130702F206564697461722000202020202093
S113314020202020202020FC200053616C76617216
S113315020202020207074733F00086E616F2020AF
S11331602020202073696D09200020202043414C39
S11331704942524143414F202000202020434F4EDA
S1133180434C5549444120202000436F6E666967D3
S113319075726520617175692061732074656D7045
S11331A06572617475726173206D6178696D6173A4
S11331B02065206465206163696F6E616D656E745E
S11331C06F20286D696E696D61732920636F6D20AE
S11331D00A200B20092E2008207061726120766F6E
S11331E06C74617200546D696E20303A2020202086
S11331F02020202000546D617820303A20202020A7
S11332002020202000546D696E20313A2020202097
S11332102020202000546D617820313A2020202085
S113322020202020005465726D2E313A2020202069
S113323020202020005465726D2E323A2020202058
S1133240202020200053313A20436F6469676F20A7
S113325020202020002020202020202D3E2020205F
S1133260202020200053323A20436F6469676F2086
S1093270202020200000D4
S9030000FC
